:100000000080002019050000950500009D050000F6
:100010009505000095050000950500000000000012
:100020000000000000000000000000009505000036
:1000300095050000000000002131000033BF0200E0
:100040009505000095050000950500009505000048
:100050009505000095050000950500009505000038
:100060009505000095050000950500009505000028
:100070009505000095050000950500009505000018
:100080009505000095050000950500009505000008
:100090000000000000000000000000000000000060
:1000A0000000000000000000000000000000000050
:1000B0009505000000000000950500009505000072
:1000C0000000000000000000000000000000000030
:1000D0000000000000000000000000000000000020
:1000E000000000000348044B834202D0034B03B1DD
:1000F00018477047540B0020540B002000000000EC
:10010000054806490B1AD90F01EBA301491002D08B
:10011000034B03B118477047540B0020540B0020C9
:100120000000000010B5064C237843B9FFF7DAFF52
:10013000044B13B10448AFF300800123237010BDBA
:10014000540B0020000000002823030008B5044BD6
:100150001BB104490448AFF30080BDE80840CFE775
:1001600000000000580B002028230300A3F5803A6C
:10017000704700BF154B002B08BF114B9D46FFF782
:10018000F5FF00218B460F461148124A121A2EF035
:10019000C9FD0C4B002B00D098470B4B002B00D017
:1001A00098470020002104000D000B482EF056FC5B
:1001B0002EF092FC2000290000F04AF82EF062FC9C
:1001C0000000080000000000000000000080002087
:1001D000540B0020685A0020ADEA020090B583B0AD
:1001E00000AF78607B68144A1C4613460FCB84E846
:1001F0000F007B6810332022002118462EF092FD5C
:100200007B6801221A747B6881225A617B6840F204
:100210003F221A627B6840F23F225A627B6840F2BA
:100220003F229A627B684FF48B72DA627B681846D1
:100230000C37BD4690BD00BF68F6020080B483B0A5
:1002400000AF78607B6818460C37BD4680BC7047AD
:1002500080B500AF2BF036FE084801F061FB08487E
:1002600001F0F4FC074801F043FA074801F00AF8EE
:1002700001F01EFF0023184680BD00BFD8140020E7
:100280000815002038150020AC150020F0B58BB003
:1002900008AF78600F4B18680E4B5C680D4B9D687B
:1002A0000C4BDB680B4A12690A494969B426069669
:1002B0000591012104911E2103911E2102910192B9
:1002C000009300232A46214601F0C6FD00BF0C37EB
:1002D000BD46F0BD04000020F0B597B008AF7860CF
:1002E00000237B6307F10C032822002118462EF01F
:1002F00019FD4049404801F0F1FB404A4FF02041D0
:100300003D4801F05BFC3E4801F07EFD3D4801F0B8
:1003100067FA3D493D4801F041F83D4B98693C4B37
:10032000DC693B4B1D6A3A4B5B6A394A926A384931
:10033000C96AB42606960591012104911E210391F4
:100340001E2102910192009300232A46214601F0CA
:1003500083FD2F4B186B2E4B5C6B2D4B9D6B2C4BE9
:10036000DB6B2B4A126C2A49496CB4260696059120
:10037000012104911E2103911E21029101920093FB
:1003800000232A46214601F067FD214B9B69184650
:1003900001F070FE1E4B1B6B184601F06BFE002334
:1003A0007B637B6B092B0DD87B6B03F110431A68C1
:1003B0007B6B9B0038333B4443F82C2C7B6B013325
:1003C0007B63EEE700237B637B6B092B0ED87B6B93
:1003D00003F190435B001A687B6B9B0038333B440E
:1003E00043F82C2C7B6B01337B63EDE701F026FE99
:1003F000FCE700BFA5250000D8140020481608A07F
:10040000081500203815002079E90000AC150020FF
:100410000400002080B584B002AF78600EF0C0FA0E
:10042000134B0093002300221249002000F090FD9E
:100430000F4B1B68002219460F4800F04DFD0C4B76
:100440001B68002219460D4800F046FD084B1B684A
:10045000002219460A4800F03FFD054B1B6818466C
:100460000EF00AFE0EF09AFB00BF0837BD4680BDB5
:10047000A415002079180000A0F60200ACF60200D6
:10048000B8F6020080B582B000AF786039607B6852
:10049000012B24D13B684FF6FF7293421FD11248C3
:1004A00001F01CFA114A12490F482DF015FA1148B3
:1004B000FFF794FE0D4A10490E482DF00DFA0F4833
:1004C00001F0EAF8094A0E490C482DF005FA0D4BE7
:1004D0001B6818462EF076FF03460A4A536000BF99
:1004E0000837BD4680BD00BFD814002000000020A2
:1004F0000D190000081500203D02000038150020ED
:10050000DD1600004C00002080B500AF4FF6FF71F3
:100510000120FFF7B7FF80BD80B584B000AF184B56
:10052000FB60184BBB6007E0FA68131DFB60BB68FB
:10053000191DB96012681A60BB68134A9342F3D35D
:10054000124B7B6015E07B681B68BB6004E0BB68F6
:100550001A1DBA6000221A607B681A687B6804332F
:100560001B6813441A46BB689342F0D37B68083378
:100570007B607B68064A9342E5D3FFF7FBFD00BF33
:100580005025030000000020540B002048250300E4
:100590005025030080B400AFFEE7000080B400AF38
:1005A00000BF044B1B68002BFBD000BF00BFBD4643
:1005B00080BC7047A815002080B586B000AF786079
:1005C00039600023FB600023BB603B685B7803F06D
:1005D0000103002B33D03B689B683B613B685B7831
:1005E00003F00203002B09D007F10C0319467868C9
:1005F0000EF0CCFE4FF6FF737B6104E03B685B6856
:10060000FB6001237B61F8683B69D98807F1080327
:100610007A690EF095FCBB68002B06D1002239697F
:10062000002000F03DFC0346BB60BB68002B09D0F6
:10063000BB689A6BBB6842F000629A6302E03B6859
:100640009B68BB60BB6818461837BD4680BD80B547
:1006500086B000AF7860396000233B610023FB6007
:100660003B685B7803F00103002B1CD03B689B6860
:100670007B613B685B7803F00203002B06D007F137
:100680001003194678680EF081FE02E03B685B6853
:100690003B6138697B69D98807F10C034FF6FF721B
:1006A0000EF04EFC02E03B689B68FB60FB6818465E
:1006B0001837BD4680BD80B584B000AF7860396022
:1006C0000023BB603B685B7803F00203002B12D071
:1006D0003B685B68FB6007F10803194678680EF019
:1006E00055FEB868FB68D98807F108034FF6FF721A
:1006F0000EF026FC02E03B685B68BB60BB681846F6
:100700001037BD4680BDB0B58EB000AF786039609F
:1007100000233B610023FB6007F1340318460EF011
:10072000F9F87B6B002B55D03B68DB6807F11404AC
:100730001D460FCD0FC495E80F0084E80F003B68FD
:100740005B7803F00403002B05D13B685B7803F072
:100750000803002B07D007F10C0207F11003114624
:1007600018460EF049F93B685B7803F00403002B50
:1007700001D0FB687B613B685B7803F00803002BCA
:1007800001D03B69BB617B69002B0DD13B685B7875
:1007900003F00103002B07D039687868FFF70CFFDE
:1007A0000346FB60FB687B61BB69002B05D13968A0
:1007B0007868FFF780FF0346BB617B69002B09D097
:1007C000BB69002B06D07B6B07F11402114618465B
:1007D0000DF070FB00BF3837BD46B0BD80B58AB0A4
:1007E00000AFF860B9607A6000237B620023BB61D0
:1007F00000237B617B681B68FB614BE1FB691A6826
:10080000BB681B689A4240F04281FB691B68242B3D
:1008100009D1FB699A88BB689B899A4203D0FB691E
:100820000C33FB6136E1FB699B683B622AE13B6A62
:100830001B78013B0A2B00F2138101A252F823F02E
:100840006D080000DD0800001D0900007B090000A4
:1008500097090000B3090000BD090000330A000039
:10086000390A0000550A00005B0A00003B6A5B7809
:1008700003F00403002B05D13B6A5B7803F0080307
:10088000002B07D007F1140207F118031146184690
:100890000EF0B2F83B6A5B7803F00803002B02D13C
:1008A0003B6A5B68BB613B6A5B7803F00403002B27
:1008B00005D1396AF868FFF77FFE03467B61BB69A3
:1008C000002B00F0CF807B69002B00F0CB80BB6950
:1008D0007A69114618460EF0D1F9C3E0396AF86812
:1008E000FFF7B5FE03467B617B69002B00F0BC80FF
:1008F0007B6918460EF04EFA7B699B6B03F0006330
:10090000002B00F0B1807B69FA689A4201D1002384
:10091000FB607B6918460EF0F5F9A5E03B6A5B7851
:1009200003F00403002B06D007F11403194600203E
:100930000EF062F805E0396AF868FFF73DFE0346FD
:100940007B61FB685B68BB61BB69002B00F08E803C
:10095000F8680EF01FFABB697A69114618460EF066
:100960008DF9FB689B6B03F00063002B7ED0F86869
:100970000EF0C8F90023FB6078E0396AF868FFF7E9
:100980001BFE03467B617B69002B71D07B69184697
:100990000EF072FB6CE0396AF868FFF758FE034608
:1009A0007B617B69002B65D07B6918460EF0ECFA01
:1009B00060E0396AF868FFF7A6FE60E03B6A5B78A2
:1009C00003F00403002B05D13B6A5B7803F00803B6
:1009D000002B07D007F1140207F11803114618463F
:1009E0000EF00AF83B6A5B7803F00803002B02D193
:1009F000FB685B68BB613B6A5B7803F00403002B18
:100A000005D1396AF868FFF7D7FD03467B61BB69FA
:100A1000002B31D07B69002B2ED0BB697A6911463F
:100A200018460EF02BF97B69002118460EF022FCC7
:100A300022E0BB689B8940E0396AF868FFF7BCFD9B
:100A400003467B617B69002B18D07B6918460EF04A
:100A50003FF813E00EF008F811E011F0FFFE0EE091
:100A600000BF0CE000BF0AE000BF08E000BF06E0E6
:100A700000BF04E000BF02E000BF00E000BF3B6A2F
:100A800010333B623B6A1B78002B7FF4D0AEFB69CE
:100A90000C33FB61FB691B68002B7FF4AFAEFB6876
:100AA000002B09D07B685B68002B05D07B685B68F6
:100AB000B968F868984778627B6A18462837BD4657
:100AC00080BD00BFF0B58FB006AFF860B9607A6046
:100AD000BB68FB61FB681B6CBB61FB681D68BB6985
:100AE0001E68BB695B68BA699268F9688968F868CA
:100AF000C088FC682C344FF0680CCDF814C0049406
:100B0000039002910192009333467A682946F8696E
:100B10000DF038FD78617B6918462437BD46F0BD7D
:100B2000F0B58FB006AFF860B9607A60BB68FB6162
:100B3000FB681B6CBB61FB681C68BB691D68FB68BC
:100B40009B68FA68D288F968B1F92C10F868B0F996
:100B50002E005C26049603900291019200932B468E
:100B60007A682146F8690DF051FC7861BB695B68D1
:100B7000002B08D0BB691968BB695B681A46F86925
:100B80000DF092FC05E0FB682C331946F8690EF075
:100B900035FA7B6918462437BD46F0BD90B58DB057
:100BA00004AFF860B9607A60BB68FB61FB681B6CDE
:100BB000BB61FB681968FB689868FB68DB88FA68AA
:100BC0002C32702402940192009303467A68F869EB
:100BD0000EF0BCFA78617B69002B0DD1BB691B68F4
:100BE000002B09D0BB691968FB689B6803F480235C
:100BF0001A46F8690EF0E8FB7B6918462437BD46B3
:100C000090BD0000F0B591B006AFF860B9607A60B1
:100C1000BB687B627B6A3B62FB681B6CFB61FB68A9
:100C20001C68FB69DD69FB691B6AFA689268F968F0
:100C3000C988F8682C30A826049603900291019286
:100C400000932B467A682146786A0DF029FDB86139
:100C5000BB69002B3DD1FB695B681946386A0DF012
:100C6000E3FCFB699968FB69DA68FB691869FB6951
:100C70009B6900930346786A0DF0AEFD7B6A196CA0
:100C80007B6A5A6C7B6A986CFB695B6900930346CC
:100C9000786A0DF05FFDFB69DB69002B19D0FB69F9
:100CA0001B6A002B15D0FB691B68002B11D00B4B66
:100CB000186AFB691B6807F1100219460DF06CFBFE
:100CC0003B69002B05D007F110031946786A0DF037
:100CD000C5FDBB6918462C37BD46F0BD5400002049
:100CE00080B582B000AF78603960054A39687868AD
:100CF000FFF774FD034618460837BD4680BD00BFA8
:100D00000C01002080B582B000AF78603960054AE0
:100D100039687868FFF762FD034618460837BD4614
:100D200080BD00BF5801002080B582B000AF786060
:100D30003960054A39687868FFF750FD0346184660
:100D40000837BD4680BD00BF2002002080B588B0B6
:100D500000AFF860B9607A600023FB6100237B611B
:100D600000237B8300233B837B68002B00F08C8077
:100D70007B68B3F84C304C2B40F086807B68B3F82E
:100D8000E4303B8380E0BB681B6A002B7CD0BB68EF
:100D90009B68002B0DDABB681A6907F11403114632
:100DA00018460DF04BFFF861FB69002B0BD00023B8
:100DB00072E0FB68002B01D100236DE0BB68DB6BA8
:100DC000FA6813447B61BB681B6A79697A68B86802
:100DD0009847F861B7F91A20B7F918309A4214DA2F
:100DE0007B69194678680DF095FB7B68B3F9E430B0
:100DF0009BB2013B9BB21AB27B68A3F8E420B7F91F
:100E00001A309BB201339BB27B83FB69002B38D134
:100E1000BB689B88C82B08D07869BB685969BB68D8
:100E20009A69BB68DB690EF04BF8BB68DB6803F0BE
:100E30002003002B04D17B69202118460EF06AF9AB
:100E4000BB685B6A002B06D07A69BB685B6A19468F
:100E500010460DF0D9FFBB689B6A002B06D07A695B
:100E6000BB689B6A194610460EF00CF8BB689B6B7A
:100E7000002B06D0BB689B6B7A691946F868FFF7B0
:100E800065FFBB685B6BBB60BB68002B03D0FB6975
:100E9000002B3FF478AF7B6918462037BD4680BDF4
:100EA00080B586B000AFF860B9607A600022B9689A
:100EB000F868FFF74BFF78617B68002B06D07B69F1
:100EC000002B03D0796978680DF0D8FE7B6918464D
:100ED0001837BD4680BD000080B588B000AFF8600F
:100EE000B9607A601023FB61184BBB6100237B6102
:100EF0001BE0BB691B681B681946F8682EF084F973
:100F00000346002B0ED1BB695868BB691B68BA68E1
:100F10001946FFF7C5FF78617B69002B0AD00023D3
:100F2000FB6107E0BB690833BB61BB691B68002B31
:100F3000DFD100E000BF7B68002B02D07B687A69BC
:100F40001A60FB6918462037BD4680BD98060090A0
:100F5000F0B58FB006AFB96011461A460346FB8163
:100F60000B467B731346FB80FA891346DB009B1A02
:100F7000DB00664A1344FB61FB69186AFB69196868
:100F8000FB699B691AB2FB69DB691BB24FF492746F
:100F9000019400931346BA680DF0BAF8FB699B6898
:100FA000002B4BD0FB699A68FB889B0013441B689D
:100FB000BB61BB69002B41D0FB69186ABB6919682A
:100FC000BB69B3F868301A460DF064F8FB691B6A18
:100FD0001B6E002B0ED0BB69DB68002B0AD0FB69AF
:100FE0001B6A1B6EFA69106ABA69D168BA69B2F8ED
:100FF0006E209847FB69186ABB695968BB69B3F8EA
:101000006A301A460DF0D4F8FB69186ABB69996812
:10101000BB69B3F86C301A460DF082F9BB691A6EE1
:10102000BB691033194610460DF084FDBB695A6E3A
:10103000BB693833194610460DF07CFDFB69DB684F
:10104000002B11D0FB69186AFB69D968FB695B8AC0
:10105000DAB2FB695B690DF0E7F8FB691B6A7A7B22
:10106000114618460CF0CEFFFB691B6AFA69928E96
:10107000A3F84420FB695C6AFB695D68FB691E6A32
:10108000FB699B69FA69D269F969C96AF869006BF9
:101090004FF44F7CCDF810C0039002910192009361
:1010A00006233246294620460CF044FFFB699B6923
:1010B0009BB2013B9BB21AB2FB69DB699BB2013B5D
:1010C0009BB21BB207F110000093134600220021CF
:1010D0000DF090FDFB69986AFB691968FB695A6A13
:1010E0007823029307F11003019300230093002358
:1010F0000EF0FCF8BB6B002B03D0FB699A6ABB6B4C
:101100001A60002318462437BD46F0BD5400002065
:1011100080B483B000AF78607B685B6843F0020204
:101120007B685A6000BF0C37BD4680BC704780B4F6
:1011300085B000AFF860B9607A603B60FB681B68FF
:1011400023F0FF02BB681A437B681A433B681A43CB
:10115000FB681A6000BF1437BD4680BC70470000B2
:1011600080B483B000AF7860044A7B681A607B6803
:1011700018460C37BD4680BC704700BFECF6020035
:1011800080B483B000AF7860084A7B681A607B68DF
:10119000043300221A605A609A60DA601A615A6158
:1011A0007B6818460C37BD4680BC7047F8F60200D5
:1011B00080B582B000AF78607B681846FFF7E0FF2B
:1011C0002E4A7B681A607B681C3300221A605A60C2
:1011D0007B6800225A627B68303300221A605A60B2
:1011E0009A60DA607A6892F83030022161F3020383
:1011F00082F830307A6892F83030162161F3C703F4
:1012000082F830307A68136B022161F31F23136375
:101210007A6892F83430022161F3020382F83430A4
:101220007A6892F834301A2161F3C70382F83430B7
:101230007A68536B022161F31F2353637A6892F833
:101240003830022161F3020382F838307A6892F86C
:1012500038301B2161F3C70382F838307A68936B0A
:10126000022161F31F2393637B68054A12681A64A5
:101270007B6818460837BD4680BD00BFECF602000B
:10128000E0F6020090B5ADF5257D00AF07F52473BB
:10129000A3F5237318600023C7F88C320023C7F826
:1012A000883207F52473A3F5227318464FF4207390
:1012B0001A4600212DF036FD0023C7F88C32D7F8EE
:1012C0008C32032B4AD807F52473A3F523731B68CC
:1012D000D7F88C220C3213F82230C3F30203DBB2AE
:1012E00003F1801303F5A0635B0107F52472A2F5F7
:1012F00023721268D7F88C120C3112F82120C2F335
:10130000C402D2B21344990007F52473A3F52373E2
:101310001B68D7F88C220C3213F82230C3F3020377
:10132000DBB21C4607F52473A3F523731B68D7F8BB
:101330008C220C3213F82230C3F3C403DBB21846FC
:1013400007F52473A3F522736201024443F82210C7
:10135000D7F88C320133C7F88C32B0E707F5247325
:10136000A3F523731B6803F1300107F1080304227E
:1013700018462AF0DFF9084B1B68074A43F40003BC
:101380001360054B9B69044A43F40003936100BF5B
:1013900007F52577BD4690BD4080092080B582B015
:1013A00000AF78603960152029F0F2FF1B22002180
:1013B0000B482AF062FB012109482AF0B3FC002304
:1013C000002207210648FFF7B2FE0548FFF7A0FEFE
:1013D0007B683A685A6200BF0837BD4680BD00BFCF
:1013E0000080084080B584B000AF78600B46FB7089
:1013F0001346BB7097F903307A68134493F8401092
:1014000097F90330BA780A43D1B27A6813440A468E
:1014100083F840207B68002283F844207B68002208
:1014200083F845201D4BDB691C4A43F40003D3615C
:1014300097F9033040337A6813440122194618485B
:101440002AF035FB0023FB60FB6848F6B7029342A5
:1014500003D8FB680133FB60F6E77B684433022264
:1014600019460F482AF0BDFB7B6893F844309BB2C5
:101470001B0199B27B6893F845301B09DBB29AB225
:1014800097F903300A4491B27A680C335B00134435
:101490000A469A8000BF1037BD4680BD40800920B3
:1014A0000080084080B582B000AF786039607B680A
:1014B0003A685A607B680022DA607B6840F28112E9
:1014C0009A827B68BF22DA827B6800229A607B68FE
:1014D0005B6A7A6804321046984700BF0837BD46F9
:1014E00080BD000080B594B000AF7860002387F81D
:1014F0004F30002387F8423007F1300300221A6092
:101500005A600023BB6400237B64002387F84330C8
:1015100097F842301A4600214848FFF763FF484BCE
:101520005B6903F40063002B14BF01230023DBB2CB
:10153000002B10D097F8433083F00103DBB2002B6F
:1015400006D00D213D48FFF7ADFF012387F843305A
:1015500000F074FDE3E73A4BDB69394A43F40003DA
:10156000D36197F842301A4600213448FFF73AFF1A
:1015700097F842301A4601213048FFF733FF2F4BCE
:101580009A8B97F84F309B0050333B4443F8342CF0
:101590002A4BDA8B97F84F309B0050333B4443F88B
:1015A000482C264B9B8B1A46BB6C1344BB64234BC5
:1015B000DB8B1A467B6C13447B6497F84F30013306
:1015C00087F84F3097F84F30042B00D8C3E71C4BF7
:1015D0009B691B4A43F400039361BB6C194AA2FB4D
:1015E00003239B089AB2154B1A857B6C154AA2FB04
:1015F00003239B089AB2114B5A850023BB64002336
:101600007B640C210D48FFF74DFF002387F84F3016
:10161000002387F843300A4B5B69DB0A002B0CBFC1
:1016200001230023DBB2002B14BF01230023DBB214
:10163000002B3FF474AF00F001FDECE7AC15002087
:1016400040800920CDCCCCCC80B582B000AF786092
:1016500039607B68012B0CD13B684FF6FF729342D7
:1016600007D10648FFF7A4FD054A064903482CF0B8
:1016700033F900BF0837BD4680BD00BFAC15002060
:10168000000000206111000080B500AF4FF6FF712F
:101690000120FFF7D9FF80BDB0B582B000AF786000
:1016A0007B680C4A1846114654231A462DF048FA16
:1016B0007B68094A03F1540415460FCD0FC495E821
:1016C00003002060043421807B6818460837BD463B
:1016D000B0BD00BF28F702007CF7020080B483B0E1
:1016E00000AF78607B6818460C37BD4680BC7047F9
:1016F00090B5ADF5257D00AF07F52473A3F52373F1
:1017000018600023C7F88C320023C7F8883207F529
:101710002473A3F5227318464FF420731A46002150
:101720002DF000FB0023C7F88C32D7F88C32142B35
:1017300046D807F52473A3F523731B68D7F88C22CA
:1017400013F82230C3F30203DBB203F1801303F575
:10175000A0635B0107F52472A2F523721268D7F823
:101760008C1212F82120C2F3C402D2B213449900A1
:1017700007F52473A3F523731B68D7F88C2213F89D
:101780002230C3F30203DBB21C4607F52473A3F532
:1017900023731B68D7F88C2213F82230C3F3C403D9
:1017A000DBB2184607F52473A3F5227362010244E5
:1017B00043F82210D7F88C320133C7F88C32B4E7E3
:1017C00007F52473A3F52373196807F1080315229D
:1017D000184629F0AFFF00BF07F52577BD4690BD3D
:1017E00080B584B000AF78600023FB810023BB810B
:1017F0000023FB727B6854331946124829F0CCFF52
:10180000104B114A1A610F4B0F4A5A610D4B9B69DD
:101810000C4A43F4006393610C4B1B680B4A43F082
:1018200002031360094B9B69084A43F0020393616A
:10183000044B9B69034A43F00103936100BF1037D7
:10184000BD4680BD00800820001000A04080092017
:1018500080B582B000AF786039607B681B694FF457
:101860007F32194603482DF06BF900BF0837BD469B
:1018700080BD00BF001000A080B582B000AF7860CE
:101880004FF47F324FF6FF7106482DF04BFA064AAF
:101890000021786801F0E8FC002318460837BD46AF
:1018A00080BD00BF001000A05118000080B485B0BA
:1018B00000AFF8607B600B46FB721346BB72F97A8F
:1018C000BA7AFB6849010A4453F822301A467B6809
:1018D000136000BF1437BD4680BC7047B0B483B0FE
:1018E00000AF78607B68084A1C4615460FCD0FC4D0
:1018F0000FCD0FC495E80F0084E80F007B681846F1
:101900000C37BD46B0BC704794F7020080B483B07A
:1019100000AF78607B6818460C37BD4680BC7047C6
:1019200090B5ADF5257D00AF07F52473A3F52373BE
:1019300018600023C7F88C320023C7F8883207F5F7
:101940002473A3F5227318464FF420731A4600211E
:101950002DF0E8F90023C7F88C32D7F88C320B2B26
:1019600046D807F52473A3F523731B68D7F88C2298
:1019700013F82230C3F30203DBB203F1801303F543
:10198000A0635B0107F52472A2F523721268D7F8F1
:101990008C1212F82120C2F3C402D2B2134499006F
:1019A00007F52473A3F523731B68D7F88C2213F86B
:1019B0002230C3F30203DBB21C4607F52473A3F500
:1019C00023731B68D7F88C2213F82230C3F3C403A7
:1019D000DBB2184607F52473A3F5227362010244B3
:1019E00043F82210D7F88C320133C7F88C32B4E7B1
:1019F00007F52473A3F52373196807F108030C2274
:101A0000184629F097FE0323C7F888320023C7F849
:101A10008C32D7F88C321F2B28D8D7F8883203F1B4
:101A2000801303F5A0635A01D7F88C321344990050
:101A300007F52473A3F52273D7F888225001D7F84D
:101A40008C22024443F82210D7F88832D9B2D7F852
:101A50008C32DAB207F1080040F20123FFF726FFCB
:101A6000D7F88C320133C7F88C32D2E70423C7F899
:101A700088320023C7F88C32D7F88C320B2B28D849
:101A8000D7F8883203F1801303F5A0635A01D7F821
:101A90008C321344990007F52473A3F52273D7F809
:101AA00088225001D7F88C22024443F82210D7F83C
:101AB0008832D9B2D7F88C32DAB207F1080040F296
:101AC0000123FFF7F3FED7F88C320133C7F88C32CD
:101AD000D2E700BF07F52577BD4690BD80B584B03D
:101AE00000AF78603960314B41F21002C3F8DC215D
:101AF0000021012029F0CAFD0B2029F049FC2C4BC4
:101B00004FF48942C3F80021294B40F20222C3F866
:101B10000421274B01229A62254B00221A63244B91
:101B200002225A63224B03229A63214B0122DA6379
:101B30001F4B02221A641E4B01225A641C4B0322C3
:101B40009A641B4B0322DA64194B03221A65184B63
:101B500000225A65164B00229A653B68012098477F
:101B6000134B40F283121A623B6801209847104BD6
:101B700040F203121A620E4B02225A623B680120A5
:101B800098470B4B2E225A62094B83221A62094B4B
:101B90001B68FB60064B00221A62054B064AC3F81D
:101BA000002100BF1037BD4680BD00BF00C00F4000
:101BB00000C00920004004A08044080080B487B021
:101BC00000AFF860B9607A60BB687B617A697B6856
:101BD0009A4205D27B691A1D7A6100221A60F5E7E4
:101BE00000BF1C37BD4680BC7047000080B485B084
:101BF00000AF0346FB71084B1B68C3F30B03FB608C
:101C0000FB791B031946044AFB680B43136000BFB2
:101C10001437BD4680BC704700C00F4080B485B00B
:101C200000AFF8607B600B46FB721346BB72F97A1B
:101C3000BA7AFB6849010A4453F822301A467B6895
:101C4000136000BF1437BD4680BC704790B5ADF53A
:101C5000257D00AF07F52473A3F5237318600023D7
:101C6000C7F88C320023C7F8883207F52473A3F530
:101C7000227318464FF420731A4600212DF052F8B3
:101C80000023C7F88C32D7F88C32032B46D807F5DF
:101C90002473A3F523731B68D7F88C2213F8223022
:101CA000C3F30203DBB203F1801303F5A0635B010E
:101CB00007F52472A2F523721268D7F88C1212F875
:101CC0002120C2F3C402D2B21344990007F5247351
:101CD000A3F523731B68D7F88C2213F82230C3F3C3
:101CE0000203DBB21C4607F52473A3F523731B68BC
:101CF000D7F88C2213F82230C3F3C403DBB21846A2
:101D000007F52473A3F522736201024443F82210FD
:101D1000D7F88C320133C7F88C32B4E707F5247357
:101D2000A3F52373196807F108030422184629F064
:101D300001FD0323C7F888320023C7F88C32D7F897
:101D40008C320F2B28D8D7F8883203F1801303F593
:101D5000A0635A01D7F88C321344990007F5247315
:101D6000A3F52273D7F888225001D7F88C220244B9
:101D700043F82210D7F88832D9B2D7F88C32DAB2C9
:101D800007F1080040F20123FFF748FFD7F88C3233
:101D90000133C7F88C32D2E70423C7F88832012315
:101DA000C7F88C32D7F88C32162B28D8D7F888325F
:101DB00003F1801303F5A0635A01D7F88C32134462
:101DC000990007F52473A3F52273D7F888225001F0
:101DD000D7F88C22024443F82210D7F88832D9B2BF
:101DE000D7F88C32DAB207F1080040F20123FFF78E
:101DF00015FFD7F88C320133C7F88C32D2E700BF19
:101E000007F52577BD4690BD80B582B000AF7860FC
:101E10000021012029F03AFC0B2029F0B9FA78685A
:101E200000F00EF80346184629F01EFC0520FFF7C7
:101E3000DDFE002029F046FC00BF0837BD4680BD0E
:101E400080B483B000AF78607B68103318460C37DD
:101E5000BD4680BC7047000080B59AB006AFF86000
:101E6000B9607A603B600023FB64FB68002B02D101
:101E70000E23FB64BBE03B6FB42B02D00E23FB644C
:101E8000B5E0EFF31083BB62BB6A7B6272B67B6A1C
:101E9000FB63644B1B680133624A1360FB6BFB629C
:101EA000FB6A83F3108800BF0023BB645E4B1B6892
:101EB0003B64BB6DBB63FB6D013BBA6B1344BB63FF
:101EC000BB6B7B6300237B642BE0FA683B6C9A421C
:101ED00001D10123BB64BB6C012B28D03B6CDB68B8
:101EE000BA6D9A4208D33B6C1B69BA6D9A4203D211
:101EF0000023BB650123BB643B6CDB687A6B9A42B1
:101F000008D33B6C1B697A6B9A4203D20023BB65F2
:101F10000123BB643B6CD3F888303B647B6C01339A
:101F20007B64424B1B687A6C9A42CED300E000BFC0
:101F3000EFF31083FB61FB69BB6172B6BB69FB63A6
:101F4000384B1B68013B374A1360FB6B3B623B6AB3
:101F500083F3108800BF00F0A5FBFA683B6C9A423F
:101F600002D10E23FB6442E0BB6D002B02D10323A0
:101F7000FB643CE07B68002B02D10323FB6436E06A
:101F8000FB6DC72B02D80523FB6430E03B6E1F2B93
:101F900002D90F23FB642AE07A6E3B6E9A4202D983
:101FA0001823FB6423E0FB6E012B02D91023FB6492
:101FB0001DE01F4B1B683B633B6B1E4A934201D1E4
:101FC0001323FB64EFF305837B617A691A4B1B686B
:101FD0001343002B0BD0EFF305833B613A69164B9B
:101FE0001B681343B3F1F03F01D21323FB64FB6C76
:101FF000002B12D1FB6E0593BB6E04937B6E039393
:102000003B6E0293FB6D0193BB6D00933B687A6856
:10201000B968F86800F076F8F864FB6C1846503739
:10202000BD4680BD5C170020C8160020CC160020DD
:10203000C01600200C180020F002002080B582B0ED
:1020400000AF0A4B1B687B607B68002B0AD0EFF364
:1020500005833B603A68064B1B681343002B01D194
:1020600000F07AF900BF0837BD4680BDC0160020D9
:10207000F002002080B584B000AF78607B68002B50
:1020800002D10E23FB600BE07B681B68074A93427A
:1020900002D00E23FB6003E0786800F0C1F9F8601D
:1020A000FB6818461037BD4680BD00BF44524854F7
:1020B00080B500AF104B1B6813F10F3F0CD00E4BD7
:1020C0004FF0F0321A6029F003FF01F089F80B4B52
:1020D0001B680133094A1360074B4FF0F0321A6056
:1020E000074B1B681846FEF7D1F8034B00221A6015
:1020F00001F006F800BF80BDF00200205C17002050
:10210000001D002080B592B000AFF860B9607A6021
:102110003B6000233B647A6DEF21386D2CF002FEAA
:10212000B4220021F8682CF0FDFDFB68BA689A62C1
:10213000FB687A685A64FB683A689A64FB683A6D8F
:10214000DA60FB687A6D5A61FB68BA6DDA62FB6827
:10215000BA6DC3F89420FB683A6E9A61FB683A6ED8
:10216000DA61FB682022C3F89C203B6DFB637B6D2A
:10217000013BFA6B1344FB63FB68FA6B1A61FB6863
:10218000FA6DDA63FB68FA6DC3F89820FB680322E6
:102190001A63FB68484A5A65FA68FB689A654749BA
:1021A000F86800F0FDFFEFF31083FB62FB6ABB628F
:1021B00072B6BB6ABB63FB68414A1A60414B1B683D
:1021C000002B0BD1404AFB681360FB68FA68C3F828
:1021D0008820FB68FA68C3F88C2016E03A4B1B682D
:1021E0007B637B6BD3F88C303B637B6BFA68C3F803
:1021F0008C203B6BFA68C3F88820FB683A6BC3F805
:102200008C20FB687A6BC3F888202E4B1B68013347
:102210002C4A13602D4B1B6801332C4A13607B6ED4
:10222000012B29D1EFF305837B627A6A284B1B6867
:102230001343B3F1F03F0DD3264B1B687B647B6CDB
:10224000002B09D07B6CDB6B3B647B6CDA6A7B6CAC
:10225000DA6301E000237B64BB6B3B623B6A83F380
:10226000108800BFF86800F055FA7B6C002B1ED078
:102270007B6C3A6CDA631AE0BB6B3B613B6983F3BE
:10228000108800BFEFF31083BB61BB697B6172B63E
:102290007B69BB630D4B1B68013B0C4A1360BB6B36
:1022A000FB61FB6983F3108800BF00F0FBF900239A
:1022B00018464837BD4680BD5D2C0000E124000073
:1022C00044524854CC160020C81600205C17002049
:1022D000F0020020C416002080B500AF134B00228E
:1022E0001A60134B00221A60124B00221A60124B24
:1022F00000221A60114B20221A608022002110480F
:102300002CF010FD0F4B00221A600F4B00221A60B8
:102310000E4B00221A600E4B00221A600D4B1B68F8
:1023200043F080730B4A136000BF80BDC0160020CD
:10233000C4160020D0160020D4160020D816002085
:10234000DC160020C8160020CC1600205C170020E8
:10235000601700206417002080B48BB000AF2A4BB8
:102360001B687B62EFF31083BB61BB697B6172B654
:102370007B693B627B6ADB69244A13607B6ADB6AA8
:10238000FB617B6A1B6A7A6A9A4209D07B6A1A6A85
:102390001F49FB6941F823207B6A1B6A1D4A1360B1
:1023A0001D4B1B68FA699A4206D91B4B1B68184AD9
:1023B00052F82330174A13603B6A3B613B6983F351
:1023C000108800BF134B1B687A6A9A4217D0134BD0
:1023D0004FF080521A60EFF30583FB60FB68002B1F
:1023E0000CD1EFF31083BB60BB687B6062B600BFAB
:1023F0007B683B603B6883F3108800BF00BF00BF71
:102400002C37BD4680BC7047C0160020CC1C002075
:10241000DC160020C4160020D816002004ED00E0D1
:1024200080B58CB000AF786000237B62EFF310833F
:10243000FB61FB69BB6172B6BB693B627B681B6B6E
:10244000032B2FD1EFF305837B617A69214B1B6846
:102450001343B3F1F03F0DD31F4B1B68BB62BB6A44
:10246000002B09D0BB6ADB6B7B62BB6ADA6ABB6A92
:10247000DA6301E00023BB62184B1B680133174A83
:1024800013603B6A3B613B6983F3108800BF786847
:1024900000F040F9BB6A002B02D0BB6A7A6ADA63AB
:1024A000002312E07B685B6B012B05D17B68002267
:1024B0005A631923FB6201E01223FB623B6AFB6053
:1024C000FB6883F3108800BFFB6A18463037BD46AF
:1024D00080BD00BFF0020020C41600205C17002061
:1024E00080B58AB000AF2C4B1B687B62EFF3108382
:1024F0007B617B693B6172B63B693B627B6AD3F867
:10250000AC30FB613B6ABB61BB6983F3108800BFE1
:10251000FB69002B03D0FB690021786A98477B6A2E
:102520005B6C7A6A926C104698471C4B1B68002BB8
:1025300003D01A4B1B68786A9847EFF31083BB608F
:10254000BB687B6072B67B683B627B6AD3F8AC3059
:10255000FB617B6A01221A637B6A01229A637B6AB0
:102560000022DA640E4B1B6801330D4A13603B6A8C
:10257000FB60FB6883F3108800BFFB69002B03D06E
:10258000FB690121786A9847786A00F0D7F900BFA3
:102590002837BD4680BD00BFC01600206017002050
:1025A0005C17002080B58EB000AF7860EFF3108329
:1025B000BB62BB6A7B6272B67B6A3B63354B1B684E
:1025C000FB62FB6A002B08D13B6B3B623B6A83F3E7
:1025D000108800BF13237B6356E0EFF30583FB6194
:1025E000FA692D4B1B681343002B08D03B6BBB6172
:1025F000BB6983F3108800BF13237B6344E0FB6A4D
:10260000264A934208D13B6B7B617B6983F3108838
:1026100000BF13237B6337E07B68002B08D13B6B43
:102620003B613B6983F3108800BF00237B632BE091
:102630001B4B1B68002B08D03B6BFB60FB6883F3D4
:10264000108800BF13237B631EE0FB6A04221A6319
:10265000FB6A01229A63FB6A0022C3F88420FB6AAA
:102660007A68DA640E4B1B6801330D4A13603B6BCA
:10267000BB60BB6883F3108800BFF86A00F05EF9A6
:10268000FB6AD3F884307B637B6B18463837BD46D2
:1026900080BD00BFC0160020F00200200C180020F2
:1026A0005C17002080B489B000AF164B1B68FB613B
:1026B000FB69002B21D1144B1B68BB61134B1B68BA
:1026C0007B61BA697B699A4217D0114B4FF08052F7
:1026D0001A60EFF305833B613B69002B0CD1EFF3EC
:1026E0001083FB60FB68BB6062B600BFBB687B60A9
:1026F0007B6883F3108800BF00BF00BF2437BD464E
:1027000080BC70475C170020C0160020C416002053
:1027100004ED00E080B596B000AF7860EFF3108371
:102720007B637B6B3B6372B63B6B7B657B685B6EED
:10273000002B05D07B684C33184600F0A7FB02E065
:102740007B680022DA64754B1B68013B734A136097
:102750007B689B6B002B40F096807B681B6B002B8B
:1027600000F0AA807B685B6B002B40F085807B6863
:1027700000221A637B68DB6A3B65694A3B6D52F84D
:102780002330FB64FB6C002B66D165493B6D7A6896
:1027900041F823207B687A681A627B687A685A62FB
:1027A00001223B6D02FA03F37B645E4B1A687B6C7B
:1027B00013435C4A13605C4B1B683A6D9A427BD2B0
:1027C000594A3B6D1360594B1B683B643B6C002BB3
:1027D00003D1564A7B6813606EE03B6CDB6B3A6D4D
:1027E0009A4269D23B6CDA6B3B6CDB6A9A420BD043
:1027F0003B6CDB6A012202FA03F37B644C4B1A68E0
:102800007B6C13434A4A1360484A7B6813607B6DB4
:10281000FB62FB6A83F3108800BF404B1B68FB63BD
:10282000FB6B002B74D1434B4FF080521A60EFF3D7
:102830000583BB62BB6A002B0CD1EFF310837B6274
:102840007B6A3B6262B600BF3B6AFB61FB6983F354
:10285000108800BF00BF5BE0FB6C5B6ABB64BB6CB5
:102860007A681A62FB6C7A685A627B68BA6C5A6240
:102870007B68FA6C1A621FE07B6800225A637B68EF
:1028800003221A6318E07B681B6B012B14D07B6852
:102890001B6B022B10D07B685B6B002B06D17B6817
:1028A00000229A637B6800221A6305E07B6800229D
:1028B0005A637B6803221A631F4B1B68BB637B6DE3
:1028C000BB61BB6983F3108800BF184B1B68BA6BF0
:1028D0009A4220D0114B1B68FB63FB6B002B1AD173
:1028E000144B4FF080521A60EFF305837B617B69D4
:1028F000002B0FD1EFF310833B613B69FB6062B6A5
:1029000000BFFB68BB60BB6883F3108800BF01E0B9
:1029100000BF00E000BF5837BD4680BD5C170020F7
:10292000DC160020D0160020D8160020C416002087
:10293000D416002004ED00E0C016002080B5A0B041
:1029400000AF78605A4B1B68BB67EFF310837B6561
:102950007B6D3B6572B63B6DFB677A68BB6F9A42D5
:1029600012D17B68DB6C7B677B6F002B08D07B6FA1
:10297000B3F1FF3F04D07B684C33184600F026FAD1
:102980007B68DB694B4A13604B4B1B68013B4A4A2F
:1029900013607B689B6B012B40F022817B680022D7
:1029A0009A637B68DB6A3B677B681B6AFB66FA6E2F
:1029B0007B689A4227D07B685B6ABB65FB6EBA6D09
:1029C0005A62BB6DFA6E1A623C4A3B6F52F8233072
:1029D0007A689A4240F08B8038493B6FFA6E41F832
:1029E0002320374B1B68002B00F0818001223B6FB6
:1029F00002FA03F3BB66324B1A68BB6EDB4313402B
:102A00002F4A136073E02D4A3B6F002142F82310D8
:102A100001223B6F02FA03F3BB662A4B1A68BB6EB6
:102A2000DB431340274A1360254B1B68002B0BD058
:102A300001223B6F02FA03F3BB66214B1A68BB6E9F
:102A4000DB4313401E4A136000237B661D4B1B684B
:102A50003B663B6E002B3DD11B4B20221A601B4B6B
:102A600000221A60FB6FFB64FB6C83F3108800BFCD
:102A7000114B1B68FB65FB6D002B40F0DB80144B9A
:102A80004FF080521A60EFF30583BB64BB6C002BE0
:102A90000CD1EFF310837B647B6C3B6462B600BFA8
:102AA0003B6CFB63FB6B83F3108800BF00BFC1E08E
:102AB000C0160020CC1C00205C170020DC16002073
:102AC000D4160020D0160020D8160020C4160020EE
:102AD00004ED00E03B6E93FAA3F33B663B6EB3FA62
:102AE00083F3BB667A6EBB6E1344564A1360564B33
:102AF0001B687A689A4273D1524B1B68534A52F84A
:102B00002330514A1360524B1B68002B43D0514B6A
:102B10001B6801334F4A1360FB6F3B633B6B83F3CE
:102B2000108800BFEFF31083BB63BB6B7B6372B68F
:102B30007B6BFB67474B1B68013B464A13600023D6
:102B40007B66434B1B683B663B6E93FAA3F33B6685
:102B50003B6EB3FA83F3BB667A6EBB6E13443B677E
:102B60003A4A3B6F52F82330DA6B364B1B689A4275
:102B700011D8364A3B6F52F82330334A1360012292
:102B80003B6F02FA03F3BB66314B1A68BB6EDB4343
:102B900013402F4A1360FB6FFB62FB6A83F31088BC
:102BA00000BF2C4B1B68FB65FB6D002B44D12A4BEF
:102BB0004FF080521A60EFF30583BB62BB6A002BB3
:102BC0000CD1EFF310837B627B6A3B6262B600BF7D
:102BD0003B6AFB61FB6983F3108800BF00BF2BE0F9
:102BE000FB6FBB61BB6983F3108800BF164B1B688A
:102BF000BA6F9A4222D0174B1B68FB65FB6D002B06
:102C00001CD1154B4FF080521A60EFF305837B61A6
:102C10007B69002B0CD1EFF310833B613B69FB60B8
:102C200062B600BFFB68BB60BB6883F3108800BF5F
:102C300000BF03E000BF02E000BF00E000BF80373C
:102C4000BD4680BDD8160020C4160020DC1600202A
:102C5000D41600205C17002004ED00E080B58AB097
:102C600000AF78607B687B62EFF310837B617B69E8
:102C70003B6172B63B693B627B6A1B6B042B0ED1D6
:102C8000134B1B680133124A13603B6AFB60FB68FD
:102C900083F3108800BF786AFFF73CFD13E07B6A7E
:102CA0009B6EFB617B6AD3F8B030BB613B6ABB6053
:102CB000BB6883F3108800BFFB69002B03D0FB695E
:102CC000B969786A984700BF2837BD4680BD00BF04
:102CD0005C17002090B589B006AF284B00221A601F
:102CE000274B00221A60274B00221A60264B002235
:102CF0001A60264B00221A608022002124482CF002
:102D000011F8244B224A1A60234B214A1A60234BA4
:102D1000234A1A60214B1B680433204A1360214B5D
:102D2000214A1A60214B4FF480621A60204B002226
:102D30001A601C4B1B681D4A12681D4909681C4813
:102D400000680024059400240494039002910192E9
:102D50000093184B184A19491948FFF7D3F97860BE
:102D60007B68002BE5D1174B00221A60164B00221E
:102D70001A6000BF0C37BD4690BD00BF6817002029
:102D8000CC1C00206C170020FC1700200818002025
:102D900070170020F0170020F8170020F41700200B
:102DA000EC170020C0180020CC180020C418002008
:102DB000C81800204D495441F92E0000C4F7020004
:102DC0000C180020001800200418002080B489B0DE
:102DD00000AF78607B681B687B617B69002B4AD001
:102DE0007B69B3F1FF3F46D07B689B69002B42D1E2
:102DF0007B69202B02D91F23BB6102E07B69013B69
:102E0000BB611F4B1A68BB699B001344FB611D4BE0
:102E10001B68FA699A420BD31A4B1B68FA69D31ADA
:102E20009B103B61184B1A683B699B001344FB6184
:102E3000FB691B68002B09D17B687A681A617B6883
:102E40007A685A61FB697A681A6011E0FB691B684D
:102E5000FB60FB685B69BB60BB687A681A61FB68F2
:102E60007A685A617B68FA681A617B68BA685A6145
:102E70007B68FA699A6100BF2437BD4680BC704701
:102E8000F8170020F4170020F017002080B487B056
:102E900000AF78607B689B697B617B69002B26D0E3
:102EA0007B681B693B617A683B699A4208D17B6900
:102EB0001B687A689A4217D17B6900221A6013E076
:102EC0007B685B69FB603B69FA685A61FB683A6939
:102ED0001A617B691B687A689A4205D13B697A69F5
:102EE0009A617B693A691A607B6800229A6100BF27
:102EF0001C37BD4680BC704780B598B000AF786085
:102F000000237B657B68734A934240F0DE80EFF3D9
:102F100010833B643B6CFB6372B6FB6BFB656E4BD3
:102F20001B681B68FB60FB68002B03D0FB6807F184
:102F30000C029A61684B1B6800221A60664B1B6882
:102F40000433654A1360644B1A68644B1B689A42E9
:102F500003D1634B1B68604A1360624B00221A6006
:102F6000FB6D3B633B6B83F3108800BFEFF3108373
:102F7000BB63BB6B7B6372B67B6BFB657FE0FB68FF
:102F8000FB64FB681B69BB640023BB60FA6CBB6C11
:102F90009A4202D10023FB600EE0FB6C5B697B640C
:102FA000BB6C7A6C5A617B6CBA6C1A61BB6C07F1B2
:102FB0000C029A61BB6CFB60FB6C1B68202B11D967
:102FC000FB6C1B68A3F12002FB6C1A600023BB653D
:102FD000FB6C07F108029A61FB6CFA6C1A61FB6CDE
:102FE000BB601AE0FB6C9B68BB65FB6CDB687B65B8
:102FF000FB6C5A68FB6C1A60FB6C1B68002B09D0D9
:10300000FB6C07F108029A61FB6CFA6C1A61FB6CAD
:10301000BB6002E0FB6C00229A61334AFB6C1360D8
:10302000FB6DFB62FB6A83F3108800BFBB6D002B56
:1030300002D0BB6D786D9847EFF31083BB62BB6A1B
:103040007B6272B67B6AFB65274B00221A60BB6805
:10305000FA6C9A4205D1FB6C00229A61F86CFFF77A
:10306000B5FEFB6DBB61BB6983F3108800BFEFF356
:1030700010833B623B6AFB6172B6FB69FB65FB68D0
:10308000002B7FF47CAF174B1B68002B16D1174B1E
:103090003B653B6D03221A633B6D01229A63144B1F
:1030A0001B680133124A1360FB6D7B617B6983F3FC
:1030B000108800BF386DFFF741FC28E7FB6D3B61CE
:1030C0003B6983F3108800BF21E700BF6037BD462E
:1030D00080BD00BF4D495441F8170020F41700206F
:1030E000F0170020FC170020081800200C18002002
:1030F0005C1700200000000000000000000000003D
:103100004FF00000224A106062B64FF080504FF03E
:10311000E021C1F8040DBFF34F8FBFF36F8FFEE7BF
:103120001C481D4A4FF00003016869B10360EFF3CA
:10313000098C2CE9F00F194C4CF804ED2568C1F806
:1031400008C00DB18D61236072B6116889B101604C
:1031500062B64F68114C8D6907F101074F60256019
:10316000D1F808C05CF804EBBCE8F00F8CF30988D8
:10317000704772B61168016009B962B6F9E74FF09D
:1031800000674FF0E028C8F8047D62B6E1E7000070
:103190005C170020C0160020C4160020CC1C0020A4
:1031A000026922F00702A2F144026FF002031360E9
:1031B0004FF0000353609360D360136153619361D8
:1031C000D361136253629362D362136353634FF00C
:1031D000FF339363D1634FF0807313648260704751
:1031E00080B500AFFFF778F8FFF774FD124B0022AF
:1031F0001A60124B00221A60114B00221A60114B08
:1032000000221A60104B00221A60104B00221A6034
:103210000F4B00221A600F4B00221A600E4B002247
:103220001A600E4B00221A600D4B00221A600D4BE3
:1032300000221A6000BF80BDD01C0020D41C0020DA
:10324000D81C0020DC1C0020E01C0020E41C002016
:10325000F01C0020F41C0020F81C0020FC1C0020A6
:10326000E81C0020EC1C002080B485B000AFF860A2
:10327000B9607A60FB6800229A65FB680022DA6513
:10328000FB680022A3F84420FB68BA68DA64FB6894
:1032900000221A65FB6800225A65FB680022C3F809
:1032A000E020FB680E2283F84020FB685D4AC3F8EB
:1032B0008820FB685C4A5A66FB685C4A5A67FB6870
:1032C0005B4ADA67FB685B4AC3F88020FB685A4AAE
:1032D0009A67FB68594AC3F88420FB68584AC3F8C8
:1032E000A820FB68574AC3F8AC20FB68564AC3F8CD
:1032F000B420FB68554AC3F8B820FB68544AC3F8A9
:103300009020FB68534AC3F8A420FB68524AC3F8D4
:103310009820FB68514A9A66FB68514AC3F8C0205E
:10332000FB68504AC3F8C420FB684F4ADA66FB6862
:103330004E4A1A67FB684E4AC3F8E820FB684D4ABC
:10334000C3F81421FB684C4AC3F8E420FB684B4ADD
:10335000C3F8F420FB684A4AC3F80C21FB68494AC9
:10336000C3F8FC20FB68484AC3F8F820FB68474ACA
:10337000C3F80821FB68464AC3F81021FB68454A98
:10338000C3F82021FB68444AC3F8F020FB68434A95
:10339000C3F8EC20FB68424AC3F81C21FB68414A91
:1033A000C3F81821FB68404AC3F80421FB683F4A70
:1033B000C3F80021FB6800221A66FB687A68C3F82C
:1033C000BC20FB683A4AC3F88C20FB68394AC3F832
:1033D000B020FB68384AC3F89420FB68374AC3F82A
:1033E000C820FB68364AC3F8CC20FB68354AC3F8CE
:1033F000D020FB680022C3F8D420FB680022C3F869
:10340000D820FB680022C3F8DC20FB682E4AC3F8F2
:103410009C20FB682D4AC3F8A02000BF1437BD468E
:1034200080BC7047B585010051BE0100D786010000
:103430000BC7010091870100FBDA0100C5C701003D
:10344000F1BD01005D820100D5DE010037BE010043
:1034500089A501002DBD01008F730000A9BB0000EC
:10346000DB9D0000DDA7000001420000D16B0000E1
:10347000093A0000793D0000F5840000E98700006A
:10348000659C0000D1340000117400008D780000AC
:10349000958C0000419100008D5F000091CC0000F0
:1034A000F964000065D00000095C00005DC90000FF
:1034B0007BC8010009DF01005D8F0100A19A0000B7
:1034C0004D960000ADCA0100A1DE010029E0010017
:1034D000B0B5A6B006AFF860B9607A603B60384B13
:1034E00007F110041D460FCD0FC495E80F0084E8C6
:1034F0000F00FB689B7F87F86F3097F86F30002BC9
:1035000000F07A82FB685B6ABB66BB6ED3F8B030B2
:103510007B667B6E002B00F07182FB683B6607F1D7
:1035200034031833049307F134031033039307F182
:1035300034030833029307F134030193D7F894302E
:103540000093D7F890303A687968B8681AF0A4FD0B
:10355000FB685B6C07F1340207F13401184610F088
:1035600065F8FB68586C07F1340303F1080207F1B2
:1035700034030833194610F059F8FB68586C07F10A
:10358000340303F1100207F134031033194610F02D
:103590004DF8FB68586C07F1340303F1180207F18A
:1035A00034031833194610F041F80023FB673B68D9
:1035B000BB6700233B67A1E100237B6779E100BF84
:1035C000D8F702003B6FDBB2DB4387F85F303B6F1D
:1035D00087F8573097F85F3097F86F2002FB03F3B6
:1035E000A94A82FB03121A44D211DB17D31A87F8B7
:1035F0005F3097F8573097F86F2002FB03F3A24A29
:1036000082FB03121A44D211DB17D31A87F8573002
:10361000FB6F9AB27B6FDB0080333B4453F8703C06
:103620009BB202FB03F39AB2BB689BB213449BB2FA
:103630001BB23B86BB6F9AB27B6FDB0080333B448F
:1036400053F86C3C9BB202FB03F39AB27B689BB2CB
:1036500013449BB21BB27B8607F13403396B1846C7
:1036600010F04EF80346002B1DD107F13403083348
:10367000396B184610F044F80346002B13D107F1BC
:1036800034031033396B184610F03AF80346002B18
:1036900009D107F134031833396B184610F030F8AC
:1036A0000346002B0FD0B7F930301946B7F9323046
:1036B00018463B6E5A6997F85F3000937C6E13464C
:1036C0000246F868A047BB6F013B9AB27B6FDB00F4
:1036D00080333B4453F86C3C9BB202FB03F39AB239
:1036E0007B689BB213449BB21BB27B8607F1340309
:1036F000396B184610F004F80346002B1DD107F172
:1037000034030833396B18460FF0FAFF0346002BD9
:1037100013D107F134031033396B18460FF0F0FF63
:103720000346002B09D107F134031833396B1846CF
:103730000FF0E6FF0346002B0FD0B7F930301946E3
:10374000B7F9323018463B6E5A6997F857300093F4
:103750007C6E13460246F868A047BB6F9AB27B6F37
:10376000DB0080333B4453F8703C9BB202FB03F315
:103770009AB2BB689BB213449BB21BB23B86FB6FF1
:103780009AB27B6FDB0080333B4453F86C3C9BB2B6
:1037900002FB03F39AB27B689BB213449BB21BB249
:1037A0007B8607F13403396B18460FF0A9FF0346F7
:1037B000002B1DD107F134030833396B18460FF085
:1037C0009FFF0346002B13D107F134031033396BED
:1037D00018460FF095FF0346002B09D107F134037B
:1037E0001833396B18460FF08BFF0346002B0FD0B0
:1037F000B7F930301946B7F9323018463B6E5A697E
:1038000097F85F3000937C6E13460246F868A04735
:10381000BB6F013B9AB27B6FDB0080333B4453F8B4
:10382000703C9BB202FB03F39AB2BB689BB2134499
:103830009BB21BB23B8607F13403396B18460FF07D
:103840005FFF0346002B21D107F134030833396BA6
:1038500018460FF055FF0346002B17D107F134032C
:103860001033396B18460FF04BFF0346002B0DD178
:1038700007F134031833396B18460FF041FF034644
:10388000002B13D002E000BF81808080B7F9303078
:103890001946B7F9323018463B6E5A6997F85730D7
:1038A00000937C6E13460246F868A0477B6F013395
:1038B0007B677B6F032B7FF785AEFB6F0133FB6765
:1038C0003B6803FB03F31A46FB6F03FB03F3D31AB6
:1038D000BB65BB6F1C02BB6D9B0218460FF07EFDE3
:1038E0000346DB00E31A3B6705E03B6FFF3B3B67AA
:1038F000BB6F013BBB673B6FFE2BF6DCFA6FBB6F08
:103900009A42FFF659AE3B6FDBB2DB4387F85F307C
:1039100097F85F3097F86F2002FB03F3394A82FB78
:1039200003121A44D211DB17D31A87F85F30002331
:103930007B675DE0FB6F9AB27B6FDB0080333B44BB
:1039400053F8703C9BB202FB03F39AB2BB689BB284
:1039500013449BB21BB23B86BB6F9AB27B6FDB00FA
:1039600080333B4453F86C3C9BB202FB03F39AB2A6
:103970007B689BB213449BB21BB27B8607F1340376
:10398000396B18460FF0BCFE0346002B1DD107F122
:1039900034030833396B18460FF0B2FE0346002B90
:1039A00013D107F134031033396B18460FF0A8FE1A
:1039B0000346002B09D107F134031833396B18463D
:1039C0000FF09EFE0346002B0FD0B7F9303019469A
:1039D000B7F9323018463B6E5A6997F85F3000935A
:1039E0007C6E13460246F868A0477B6F01337B6705
:1039F0007B6F032B9EDD02E000BF00E000BF80373D
:103A0000BD46B0BD81808080B0B59AB002AFF8608D
:103A1000B9607A603B609E4B07F110041D460FCDE4
:103A20000FC495E80F0084E80F00FB689B7F87F8C0
:103A30004F3097F84F30002B00F09581FB685B6AA0
:103A4000BB64FB685B6C7B64FB683B64BB6CD3F85A
:103A5000B030FB63FB6B002B00F087810023FB651C
:103A60003B68BB6500233B651FE13B6DDBB2DB437D
:103A700087F83B303B6D87F83A3097F83B3097F842
:103A80004F2002FB03F3834A82FB03121A44D21134
:103A9000DB17D31A87F83B3097F83A3097F84F2066
:103AA00002FB03F37B4A82FB03121A44D211DB1799
:103AB000D31A87F83A3000237B65CCE0FB6D9AB2CD
:103AC0007B6DDB0060333B4453F8503C9BB202FB00
:103AD00003F39AB2BB689BB213449BB21BB23B8602
:103AE000BB6D9AB27B6DDB0060333B4453F84C3CBA
:103AF0009BB202FB03F39AB27B689BB213449BB266
:103B00001BB27B86396B786C0FF0FAFD0346002BF5
:103B10000FD0B7F930301946B7F9323018463B6C40
:103B20005A6997F83B300093FC6B13460246F868DD
:103B3000A047BB6D013B9AB27B6DDB0060333B4419
:103B400053F84C3C9BB202FB03F39AB27B689BB2E6
:103B500013449BB21BB27B86396B786C0FF0D0FD9F
:103B60000346002B0FD0B7F930301946B7F9323081
:103B700018463B6C5A6997F83A300093FC6B134631
:103B80000246F868A047BB6D9AB27B6DDB006033DC
:103B90003B4453F8503C9BB202FB03F39AB2BB6820
:103BA0009BB213449BB21BB23B86FB6D9AB27B6DFA
:103BB000DB0060333B4453F84C3C9BB202FB03F305
:103BC0009AB27B689BB213449BB21BB27B86396B63
:103BD000786C0FF095FD0346002B0FD0B7F930300D
:103BE0001946B7F9323018463B6C5A6997F83B30A2
:103BF0000093FC6B13460246F868A047BB6D013B7F
:103C00009AB27B6DDB0060333B4453F8503C9BB26F
:103C100002FB03F39AB2BB689BB213449BB21BB284
:103C20003B86396B786C0FF06BFD0346002B0FD091
:103C3000B7F930301946B7F9323018463B6C5A693B
:103C400097F83A300093FC6B13460246F868A04799
:103C50007B6D01337B657B6D032B7FF72FAFFB6D96
:103C60000133FB653B6803FB03F31A46FB6D03FB63
:103C700003F3D31A7B63BB6D1C027B6B9B0218465C
:103C80000FF0ACFB0346DB00E31A3B650AE000BF24
:103C9000F8F70200818080803B6DFF3B3B65BB6D88
:103CA000013BBB653B6DFE2BF6DCFA6DBB6D9A42AA
:103CB000FFF6DBAE3B6DDBB2DB4387F83B3097F8BA
:103CC0003B3097F84F2002FB03F32A4A82FB031292
:103CD0001A44D211DB17D31A87F83B3000237B65D7
:103CE0003DE0FB6D9AB27B6DDB0060333B4453F8E3
:103CF000503C9BB202FB03F39AB2BB689BB21344E5
:103D00009BB21BB23B86BB6D9AB27B6DDB0060330E
:103D10003B4453F84C3C9BB202FB03F39AB27B68E2
:103D20009BB213449BB21BB27B86396B786C0FF04D
:103D3000E7FC0346002B0FD0B7F930301946B7F92E
:103D4000323018463B6C5A6997F83B300093FC6B55
:103D500013460246F868A0477B6D01337B657B6D97
:103D6000032BBEDD02E000BF00E000BF6037BD46B0
:103D7000B0BD00BF81808080B0B59CB002AFF8605C
:103D8000B9607A603B60974B07F110041D460FCD78
:103D90000FC495E80F0084E80F00FB689B7F87F84D
:103DA000573097F85730002B00F02182FB685B6A90
:103DB0003B65FB685B6CFB64FB68BB643B6DD3F8E5
:103DC000B0307B647B6C002B00F013823B6803FBFC
:103DD00003F33B64BB6F03FB03F3FB6300237B66CE
:103DE000BB6F3B660023BB65D6E0BB6DDBB2DB433C
:103DF00087F83B30BB6D87F83A3097F83B3097F83F
:103E0000572002FB03F3784A82FB03121A44D211B3
:103E1000DB17D31A87F83B3097F83A3097F85720DA
:103E200002FB03F3704A82FB03121A44D211DB1720
:103E3000D31A87F83A307B6E0133FA6B02FB03F337
:103E40007A6E013203FB02F23B6C92FBF3F3FA6BE6
:103E5000D31A7B633B6E1C027B6B9B0218460FF0F0
:103E6000BDFA0346DB00E31ABB65BB6DB3F5FF7F0C
:103E700018DBFB6B7A6E02FB03F37A6E03FB02F234
:103E80003B6C92FBF3F3FA6BD31A7B633B6E1C0221
:103E90007B6B9B0218460FF0A1FA0346DB00E31A86
:103EA000BB6588E00023FB6567E07B6E9AB2FB6D23
:103EB000DB0068333B4453F8583C9BB202FB03F3EE
:103EC0009AB2BB689BB213449BB21BB23B863B6E5B
:103ED0009AB2FB6DDB0068333B4453F8543C9BB211
:103EE00002FB03F39AB27B689BB213449BB21BB2F2
:103EF0007B86396BF86C0FF003FC0346002B0FD068
:103F0000B7F930301946B7F932301846BB6C5A69E8
:103F100097F83B3000937C6C13460246F868A04744
:103F20003B6E013B9AB2FB6DDB0068333B4453F8B8
:103F3000543C9BB202FB03F39AB27B689BB21344DE
:103F40009BB21BB27B86396BF86C0FF0D9FB034632
:103F5000002B0FD0B7F930301946B7F93230184678
:103F6000BB6C5A6997F83A3000937C6C1346024652
:103F7000F868A047FB6D0133FB65FB6D032B94DDF7
:103F8000BB6DFE2B05DDBB6DFF3BBB653B6E013B97
:103F90003B667B6E01337B66FB6B5B007A6E0132A6
:103FA00003FB02F23B6E5B00013B396C01FB03F348
:103FB0009A42FFF61AAFBB6DDBB2DB4387F83B30AA
:103FC00097F83B3097F8572002FB03F3064A82FB31
:103FD00003121A44D211DB17D31A87F83B3000239F
:103FE000FB6541E018F80200818080807B6E9AB208
:103FF000FB6DDB0068333B4453F8583C9BB202FB3B
:1040000003F39AB2BB689BB213449BB21BB23B86CC
:104010003B6E9AB2FB6DDB0068333B4453F8543C73
:104020009BB202FB03F39AB27B689BB213449BB230
:104030001BB27B86396BF86C0FF062FB0346002BDA
:104040000FD0B7F930301946B7F932301846BB6C8B
:104050005A6997F83B3000937C6C13460246F86827
:10406000A047FB6D0133FB65FB6D032BBEDDB9E0A3
:104070003B6E013B3B663B6C3A6E02FB03F33A6ED0
:1040800003FB02F2FB6B92FBF3F33A6CD31A7B63F4
:104090007B6B9B0218460FF0A1F90346DB001A4622
:1040A0007B6E1B02D31ABB6505E0BB6DFF3BBB6596
:1040B0007B6E01337B66BB6DFE2BF6DCBB6DDBB22A
:1040C000DB4387F83B30BB6D87F83A3097F83B30DD
:1040D00097F8572002FB03F3484A82FB03121A4465
:1040E000D211DB17D31A87F83B3097F83A3097F89C
:1040F000572002FB03F3414A82FB03121A44D211F8
:10410000DB17D31A87F83A300023FB6567E07B6E34
:104110009AB2FB6DDB0068333B4453F8583C9BB2CA
:1041200002FB03F39AB2BB689BB213449BB21BB26F
:104130003B863B6E9AB2FB6DDB0068333B4453F821
:10414000543C9BB202FB03F39AB27B689BB21344CC
:104150009BB21BB27B86396BF86C0FF0D1FA034629
:10416000002B0FD0B7F930301946B7F93230184666
:10417000BB6C5A6997F83B3000937C6C134602463F
:10418000F868A0477B6E01339AB2FB6DDB006833A1
:104190003B4453F8583C9BB202FB03F39AB2BB6812
:1041A0009BB213449BB21BB23B86396BF86C0FF089
:1041B000A7FA0346002B0FD0B7F930301946B7F9EC
:1041C00032301846BB6C5A6997F83A3000937C6CD1
:1041D00013460246F868A047FB6D0133FB65FB6D93
:1041E000032B94DD3B6E002B3FF742AF02E000BF94
:1041F00000E000BF6837BD46B0BD00BF8180808051
:1042000090B59BB002AFF860B9607A603B60FB6824
:10421000BB64BB6C5B697B64FB685B6C3B643A684A
:10422000BB68D31A002BB8BF5B42FB633A6F7B6855
:10423000D31A002BB8BF5B42BB63FB689B7F87F838
:10424000373097F83730002B00F00A84FB6B002BD7
:1042500000F00884BB6B002B00F00484FB685B6AF1
:10426000D3F8B030002B0AD1FB685B6A5C6E3B6F01
:1042700000933B687A68B968F868A047F5E3FB6883
:104280005B6AD3F8B0303B63FB6B012B40F0A68038
:10429000BB6B012B40F0A280BB681BB23B837B68E9
:1042A0001BB27B83B969386C0FF02AFA0346002BE6
:1042B0001AD0C02387F82F3097F8373097F82F207F
:1042C00002FB03F3764A82FB03121A44D211DB1776
:1042D000D31A87F82F3097F82F3000933C6B7B6C04
:1042E0007A68B968F868A0473B681BB23B833B6FAC
:1042F0001BB27B83B969386C0FF002FA0346002BBE
:104300001AD0402387F82F3097F8373097F82F20AE
:1043100002FB03F3624A82FB03121A44D211DB1739
:10432000D31A87F82F3097F82F3000933C6B7B6CB3
:104330003A6F3968F868A047BB681BB23B833B6F94
:104340001BB27B83B969386C0FF0DAF90346002B96
:104350001AD0402387F82F3097F8373097F82F205E
:1043600002FB03F34E4A82FB03121A44D211DB17FD
:10437000D31A87F82F3097F82F3000933C6B7B6C63
:104380003A6FB968F868A0473B681BB23B837B680B
:104390001BB27B83B969386C0FF0B2F90346002B6E
:1043A00000F06283C02387F82F3097F8373097F8F2
:1043B0002F2002FB03F33A4A82FB03121A44D21164
:1043C000DB17D31A87F82F3097F82F3000933C6B08
:1043D0007B6C7A683968F868A04745E3FA6BBB6B79
:1043E0009A4203DBBA683B689A4207DCBA6BFB6B04
:1043F0009A421BDD7A683B6F9A4217DD3A68BB68C8
:1044000053403B60BA683B685340BB603A68BB6846
:1044100053403B603A6F7B6853403B677A683B6F21
:1044200053407B603A6F7B6853403B673A68BB6898
:10443000D21AFB6B92FBF3F3BB623A6F7B68D21A22
:10444000BB6B92FBF3F37B62BB681BB23B837B6865
:104450001BB27B833B681BB2BB823B6F1BB2FB82F0
:10446000B969386C0FF04CF90346002B00F0078156
:104470007969386C0FF044F90346002B00F0FF8097
:10448000FA6BBB6B9A427EDBBB68FB657B68BB65E6
:104490003B683B653B6FFB6400237B656EE000BFC0
:1044A000818080807A6DFB6B9A420BDB7A6DFB6BAF
:1044B000D31A7B65BA6D7B6A1344BB65FA6C7B6A61
:1044C000D31AFB647B6D1A02FB6B92FBF3F33B6226
:1044D0003B6AC3F1FF03FB6197F83730FA6902FBCF
:1044E00003F36F4A82FB03121A44D211DB17D31A6B
:1044F000DBB2FB6197F837303A6A02FB03F3684A94
:1045000082FB03121A44D211DB17D31ADBB23B62CF
:10451000FB69DBB200933C6B7B6CBA6DF96DF8689C
:10452000A047BA6D7B6A1A443B6ADBB200933C6BCE
:104530007B6CF96DF868A047FA6D3B6D9A4213D019
:10454000FB69DBB200933C6B7B6CFA6C396DF868ED
:10455000A047FA6C7B6AD21A3B6ADBB200933C6BD1
:104560007B6C396DF868A047FB6D0133FB653B6DD3
:10457000013B3B657A6DBB6B13447B65FA6D3B6D0C
:104580009A428FDD71E2BB68FB657B68BB653B6867
:104590003B653B6FFB6400237B656BE07A6DBB6B17
:1045A0009A420BDB7A6DBB6BD31A7B65FA6DBB6AE3
:1045B0001344FB653A6DBB6AD31A3B657B6D1A02E7
:1045C000BB6B92FBF3F33B623B6AC3F1FF03FB61FE
:1045D00097F83730FA6902FB03F3314A82FB031282
:1045E0001A44D211DB17D31ADBB2FB6197F83730CC
:1045F0003A6A02FB03F32A4A82FB03121A44D211DD
:10460000DB17D31ADBB23B62FB69DBB200933C6B76
:104610007B6CBA6DF96DF868A047FA6DBB6AD1186A
:104620003B6ADBB200933C6B7B6CBA6DF868A047C9
:10463000BA6DFB6C9A4213D0FB69DBB200933C6B02
:104640007B6CFA6C396DF868A0473A6DBB6AD11A79
:104650003B6ADBB200933C6B7B6CFA6CF868A0475A
:10466000BB6D0133BB65FB6C013BFB647A6DFB6B7F
:1046700013447B65BA6DFB6C9A428FDDF5E1FA6BF2
:10468000BB6B9A42C0F2F680BB68FB657B68BB657A
:104690003B683B653B6FFB6400237B65E4E000BF48
:1046A000818080807A6DFB6B9A420BDB7A6DFB6BAD
:1046B000D31A7B65BA6D7B6A1344BB65FA6C7B6A5F
:1046C000D31AFB647B6D1A02FB6B92FBF3F33B6224
:1046D0003B6AC3F1FF03FB6197F83730FA6902FBCD
:1046E00003F36A4A82FB03121A44D211DB17D31A6E
:1046F000DBB2FB6197F837303A6A02FB03F3634A97
:1047000082FB03121A44D211DB17D31ADBB23B62CD
:104710003B6CB3F900301A46FB6D93421DDB3B6CDA
:10472000B3F904301A46FB6D934216DC3B6CB3F9C7
:1047300002301A46BB6D93420FDB3B6CB3F9063077
:104740001A46BB6D934208DCFB69DBB200933C6BFD
:104750007B6CBA6DF96DF868A0473B6CB3F900301B
:104760001A46FB6D934221DB3B6CB3F904301A46C9
:10477000FB6D93421ADCBA6D7B6A13443A6CB2F952
:104780000220934212DBBA6D7B6A13443A6CB2F991
:10479000062093420ADCBA6D7B6A1A443B6ADBB29C
:1047A00000933C6B7B6CF96DF868A047FA6D3B6D2C
:1047B0009A424ED03B6CB3F900301A463B6D93429F
:1047C0001DDB3B6CB3F904301A463B6D934216DC9B
:1047D0003B6CB3F902301A46FB6C93420FDB3B6C27
:1047E000B3F906301A46FB6C934208DCFB69DBB276
:1047F00000933C6B7B6CFA6C396DF868A0473B6C9E
:10480000B3F900301A463B6D934223DB3B6CB3F99E
:1048100004301A463B6D93421CDCFA6C7B6AD31A57
:104820003A6CB2F90220934214DBFA6C7B6AD31A19
:104830003A6CB2F9062093420CDCFA6C7B6AD21A0D
:104840003B6ADBB200933C6B7B6C396DF868A04728
:1048500000E000BFFB6D0133FB653B6D013B3B6539
:104860007A6DBB6B13447B65FA6D3B6D9A427FF7A3
:1048700019AFFAE0BB68FB657B68BB653B683B65CD
:104880003B6FFB6400237B65E4E000BF8180808098
:104890007A6DBB6B9A420BDB7A6DBB6BD31A7B656F
:1048A000FA6DBB6A1344FB653A6DBB6AD31A3B656C
:1048B0007B6D1A02BB6B92FBF3F33B623B6AC3F165
:1048C000FF03FB6197F83730FA6902FB03F3684A8C
:1048D00082FB03121A44D211DB17D31ADBB2FB613D
:1048E00097F837303A6A02FB03F3614A82FB0312FE
:1048F0001A44D211DB17D31ADBB23B623B6CB3F91B
:1049000000301A46FB6D93421DDB3B6CB3F904305B
:104910001A46FB6D934216DC3B6CB3F902301A4623
:10492000BB6D93420FDB3B6CB3F906301A46BB6D8F
:10493000934208DCFB69DBB200933C6B7B6CBA6D85
:10494000F96DF868A047FA6DBB6A13443A6CB2F986
:104950000020934220DBFA6DBB6A13443A6CB2F933
:104960000420934218DC3B6CB3F902301A46BB6D4D
:10497000934211DB3B6CB3F906301A46BB6D934290
:104980000ADCFA6DBB6AD1183B6ADBB200933C6B60
:104990007B6CBA6DF868A047BA6DFB6C9A424ED03A
:1049A0003B6CB3F900301A463B6D93421DDB3B6C08
:1049B000B3F904301A463B6D934216DC3B6CB3F9F5
:1049C00002301A46FB6C93420FDB3B6CB3F90630A6
:1049D0001A46FB6C934208DCFB69DBB200933C6B2C
:1049E0007B6CFA6C396DF868A0473A6DBB6AD31AD4
:1049F0003A6CB2F90020934222DB3A6DBB6AD31ABB
:104A00003A6CB2F9042093421ADC3B6CB3F90230E1
:104A10001A46FB6C934213DB3B6CB3F906301A4623
:104A2000FB6C93420CDC3A6DBB6AD11A3B6ADBB279
:104A300000933C6B7B6CFA6CF868A04700E000BF09
:104A4000BB6D0133BB65FB6C013BFB647A6DFB6B9B
:104A500013447B65BA6DFB6C9A427FF719AF04E093
:104A600000BF02E000BF00E000BF6437BD4690BD5C
:104A700081808080B0B5BEB006AFF860B9607A6062
:104A80003B60C04B07F110041D460FCD0FC495E8E5
:104A90000F0084E80F000123C7F8A030D7F8F030EA
:104AA000592B0CDDD7F8F030B3F5877F07DCD7F84A
:104AB000F430B3F5877F02DC0023C7F8A030FB6831
:104AC0005B6AC7F89430FB68C7F89030D7F890302D
:104AD000B3F91C30C7F88C30D7F89430D3F8B03025
:104AE000C7F88830D7F88830002B01F08680FB6843
:104AF0005B6CC7F88430A44BC7F88030D7F88C3093
:104B0000013B5B101A463B68934241F27880D7F82C
:104B10008C30013B5B101A463B689B1A3B6007F1E7
:104B20003C030093D7F8F0303A687968B8680EF023
:104B300031FA07F138030093D7F8F4303A6879680E
:104B4000B8680EF027FAD7F88C203B6813445A1E39
:104B500007F134030093D7F8F0307968B8680EF0A5
:104B600019FAD7F88C203B6813445A1E07F130031A
:104B70000093D7F8F4307968B8680EF00BFA3B6808
:104B80007A68D21AD7F88C30D31A0133C7F8DC30E0
:104B90003A687B681A44D7F88C301344013BC7F855
:104BA000D830D7F8F030592B03DCD7F8F430592B34
:104BB00008DDD7F8F0305A2B29DDD7F8F430B3F5FB
:104BC000E17F24DAB7F93620B7F932309A4204DAB5
:104BD000B7F93630C7F8DC3003E0B7F93230C7F840
:104BE000DC30B7F93E301A46D7F8DC30934203DDAB
:104BF000B7F93E30C7F8DC30B7F93A301A46D7F883
:104C0000DC30934203DDB7F93A30C7F8DC30D7F82F
:104C10008430B3F902301A46D7F8DC30934205DA13
:104C2000D7F88430B3F90230C7F8DC30D7F8F03069
:104C3000B3F5877F04DAD7F8F430B3F5877F04DB68
:104C4000D7F8F030B3F5877F24DDB7F93620B7F910
:104C500032309A4204DDB7F93630C7F8D83003E075
:104C6000B7F93230C7F8D830B7F93E301A46D7F81E
:104C7000D830934203DAB7F93E30C7F8D830B7F9E5
:104C80003A301A46D7F8D830934203DAB7F93A30B7
:104C9000C7F8D830D7F88430B3F906301A46D7F8B9
:104CA000D830934205DDD7F88430B3F90630C7F821
:104CB000D830D7F8D820D7F8DC30D31A0133FB67C7
:104CC0000023C7F8AC3016E0D7F8AC309B00D7F81B
:104CD000802013444FF4FA621A60D7F8AC300133E5
:104CE0009B00D7F88020134400221A60D7F8AC301C
:104CF0000233C7F8AC30FB6F5B00D7F8AC209A42A8
:104D0000E2DB0023C7F8B03000F004BCD7F8B030C5
:104D1000012B05D1D7F88C203B681344013B3B6045
:104D200007F144031833049307F14403103303934A
:104D300007F144030833029307F144030193D7F8C2
:104D4000F4300093D7F8F0303A687968B86819F011
:104D5000A3F90023C7F8C4303B68C7F8C03000236C
:104D6000C7F8A83060E3D7F8A830DBB2DB4387F898
:104D70006730D7F8A83087F866300023C7F8AC3022
:104D800059E200BF38F8020078240020D7F8C43078
:104D90009AB2D7F8AC30DB00E0333B4453F8D03C58
:104DA0009BB202FB03F39AB2BB689BB213449BB263
:104DB0001BB2A7F84030D7F8C0309AB2D7F8AC3061
:104DC000DB00E0333B4453F8CC3C9BB202FB03F3E3
:104DD0009AB27B689BB213449BB21BB2A7F84230D5
:104DE00007F14403396C18460EF08AFC0346002B89
:104DF00009D107F144030833396C18460EF080FCE2
:104E00000346002B19D0396CD7F884000EF078FCDB
:104E10000346002B11D0B7F940301946B7F942309C
:104E20001846D7F890305A6997F867300093D7F84A
:104E3000884013460246F868A047D7F8C030013BC7
:104E40009AB2D7F8AC30DB00E0333B4453F8CC3CAB
:104E50009BB202FB03F39AB27B689BB213449BB2F2
:104E60001BB2A7F8423007F14403396C18460EF024
:104E700047FC0346002B09D107F144030833396C82
:104E800018460EF03DFC0346002B19D0396CD7F8BC
:104E900084000EF035FC0346002B11D0B7F94030EA
:104EA0001946B7F942301846D7F890305A6997F842
:104EB00066300093D7F8884013460246F868A0474A
:104EC000D7F8C0309AB2D7F8AC30DB00E0333B44BF
:104ED00053F8D03C9BB202FB03F39AB2BB689BB27F
:104EE00013449BB21BB2A7F84030D7F8C4309AB233
:104EF000D7F8AC30DB00E0333B4453F8CC3C9BB2FA
:104F000002FB03F39AB27B689BB213449BB21BB2C1
:104F1000A7F8423007F14403396C18460EF0F0FB55
:104F20000346002B09D107F144030833396C1846B6
:104F30000EF0E6FB0346002B19D0396CD7F884003D
:104F40000EF0DEFB0346002B11D0B7F940301946B6
:104F5000B7F942301846D7F890305A6997F8673059
:104F60000093D7F8884013460246F868A047B7F97F
:104F700042301A46D7F8DC30934200F38680B7F906
:104F800042301A46D7F8D83093427EDB07F144030B
:104F9000396C18460EF0B4FB0346002B09D107F11B
:104FA00044030833396C18460EF0AAFB0346002B65
:104FB0006BD0B7F942301A46D7F8DC30D31A5B0011
:104FC000C7F8B430D7F8A030002B2FD0D7F8B030C6
:104FD000002B14D1D7F8AC30DB00E0333B4453F85E
:104FE000D03CD7F8C02002FB03F1D7F8B4309B00C7
:104FF000D7F880201344BA680A441A6045E0D7F80D
:10500000C0305A1ED7F8AC30DB00E0333B4453F8D5
:10501000D03C03FB02F1D7F8B43001339B00D7F842
:1050200080201344BA680A441A602EE0D7F8B030E2
:10503000002B15D1D7F8AC30DB00E0333B4453F8FC
:10504000D03CD7F8C02002FB03F1D7F8B4300133CD
:105050009B00D7F880201344BA680A441A6014E011
:10506000D7F8C0305A1ED7F8AC30DB00E0333B44F1
:1050700053F8D03C03FB02F1D7F8B4309B00D7F8CB
:1050800080201344BA680A441A60D7F8C030013B44
:105090009AB2D7F8AC30DB00E0333B4453F8D03C55
:1050A0009BB202FB03F39AB2BB689BB213449BB260
:1050B0001BB2A7F8403007F14403396C18460EF0D4
:1050C0001FFB0346002B09D107F144030833396C59
:1050D00018460EF015FB0346002B19D0396CD7F893
:1050E00084000EF00DFB0346002B11D0B7F94030C1
:1050F0001946B7F942301846D7F890305A6997F8F0
:1051000066300093D7F8884013460246F868A047F7
:10511000B7F942301A46D7F8DC30934200F3868064
:10512000B7F942301A46D7F8D83093427EDB07F100
:105130004403396C18460EF0E3FA0346002B09D1FC
:1051400007F144030833396C18460EF0D9FA0346C8
:10515000002B6BD0B7F942301A46D7F8DC30D31A9F
:105160005B00C7F8B430D7F8A030002B2FD0D7F8A9
:10517000B030002B14D1D7F8AC30DB00E0333B4427
:1051800053F8D03CD7F8C02002FB03F1D7F8B43075
:105190009B00D7F880201344BA680A441A6045E09F
:1051A000D7F8C0305A1ED7F8AC30DB00E0333B44B0
:1051B00053F8D03C03FB02F1D7F8B43001339B0025
:1051C000D7F880201344BA680A441A602EE0D7F852
:1051D000B030002B15D1D7F8AC30DB00E0333B44C6
:1051E00053F8D03CD7F8C02002FB03F1D7F8B43015
:1051F00001339B00D7F880201344BA680A441A6030
:1052000014E0D7F8C0305A1ED7F8AC30DB00E033DA
:105210003B4453F8D03C03FB02F1D7F8B4309B0079
:10522000D7F880201344BA680A441A60D7F8AC3023
:105230000133C7F8AC30D7F8AC30032B7FF7A6ADFD
:10524000D7F8C4300133C7F8C4303B6803FB03F31D
:105250001A46D7F8C43003FB03F3D31AC7F8B830A3
:10526000D7F8C0301C02D7F8B8309B0218460EF0B1
:10527000B5F80346DB00E31AC7F8A830CFE0D7F84B
:10528000A830FF3BC7F8A830D7F8C030013BC7F8BB
:10529000C0300023C7F8AC30BCE0D7F8C4309AB2B5
:1052A000D7F8AC30DB00E0333B4453F8D03C9BB242
:1052B00002FB03F39AB2BB689BB213449BB21BB2CE
:1052C000A7F84030D7F8C0309AB2D7F8AC30DB003E
:1052D000E0333B4453F8CC3C9BB202FB03F39AB25D
:1052E0007B689BB213449BB21BB2A7F84230B7F95C
:1052F00042301A46D7F8DC30934200F38680B7F983
:1053000042301A46D7F8D83093427EDB07F1440387
:10531000396C18460EF0F4F90346002B09D107F159
:1053200044030833396C18460EF0EAF90346002BA3
:105330006BD0B7F942301A46D7F8DC30D31A5B008D
:10534000C7F8B430D7F8A030002B2FD0D7F8B03042
:10535000002B14D1D7F8AC30DB00E0333B4453F8DA
:10536000D03CD7F8C42002FB03F1D7F8B4309B003F
:10537000D7F880201344BA680A441A6045E0D7F889
:10538000C4305A1ED7F8AC30DB00E0333B4453F84E
:10539000D03C03FB02F1D7F8B43001339B00D7F8BF
:1053A00080201344BA680A441A602EE0D7F8B0305F
:1053B000002B15D1D7F8AC30DB00E0333B4453F879
:1053C000D03CD7F8C42002FB03F1D7F8B430013346
:1053D0009B00D7F880201344BA680A441A6014E08E
:1053E000D7F8C4305A1ED7F8AC30DB00E0333B446A
:1053F00053F8D03C03FB02F1D7F8B4309B00D7F848
:1054000080201344BA680A441A60D7F8AC300133DC
:10541000C7F8AC30D7F8AC30032B7FF73EAFD7F8E6
:10542000A830FE2B3FF72BAFD7F8C420D7F8C030F9
:105430009A42FFF698ACD7F8A830DBB2DB4387F886
:1054400067300023C7F8AC305BE0D7F8C4309AB2BD
:10545000D7F8AC30DB00E0333B4453F8D03C9BB290
:1054600002FB03F39AB2BB689BB213449BB21BB21C
:10547000A7F84030D7F8C0309AB2D7F8AC30DB008C
:10548000E0333B4453F8CC3C9BB202FB03F39AB2AB
:105490007B689BB213449BB21BB2A7F8423007F162
:1054A0004403396C18460EF02BF90346002B09D142
:1054B00007F144030833396C18460EF021F903460E
:1054C000002B19D0396CD7F884000EF019F9034677
:1054D000002B11D0B7F940301946B7F942301846C1
:1054E000D7F890305A6997F867300093D7F888401A
:1054F00013460246F868A047D7F8AC300133C7F826
:10550000AC30D7F8AC30032B9FDDD7F8B030013387
:10551000C7F8B030D7F8B030012B7FF7F7AB0023D6
:10552000C7F8AC30EAE2D7F8AC30002B10D1B7F9AD
:105530003C30C7F8D430B7F93E30C7F8CC30B7F9B3
:105540003430C7F8D030B7F93630C7F8C8300FE07C
:10555000B7F93830C7F8D430B7F93A30C7F8CC309B
:10556000B7F93030C7F8D030B7F93230C7F8C830A3
:10557000D7F8D020D7F8D430D31A002BB8BF5B426D
:10558000BB67D7F8C820D7F8CC30D31A002BB8BFE8
:105590005B427B67D7F8CC20D7F8C8309A4200F03E
:1055A000A782D7F8D420D7F8D0309A427ED1D7F846
:1055B000CC20D7F8C8309A4229DDD7F8D420D7F8C4
:1055C000D0305340C7F8D430D7F8D020D7F8D430F3
:1055D0005340C7F8D030D7F8D420D7F8D030534054
:1055E000C7F8D430D7F8CC20D7F8C8305340C7F824
:1055F000CC30D7F8C820D7F8CC305340C7F8C830E3
:10560000D7F8CC20D7F8C8305340C7F8CC30D7F8FB
:10561000CC30C7F8C03042E0D7F8C020D7F8DC3033
:105620009A4237DBD7F8C020D7F8D8309A4231DC1D
:10563000D7F8C020D7F8DC30D31A5B00C7F8B430F5
:10564000D7F8B4309B00D7F8802013441B68D7F8F4
:10565000D4209A4208DCD7F8B4309B00D7F88020D9
:105660001344D7F8D4201A60D7F8B43001339B0024
:10567000D7F8802013441B68D7F8D4209A4209DD5C
:10568000D7F8B43001339B00D7F880201344D7F803
:10569000D4201A60D7F8C0300133C7F8C030D7F82B
:1056A000C020D7F8C8309A42B6DD22E2BA6F7B6FCD
:1056B0009A4205DBD7F8D420D7F8D0309A4209DCDB
:1056C0007A6FBB6F9A422FDDD7F8CC20D7F8C8305D
:1056D0009A4229DDD7F8D020D7F8D4305340C7F804
:1056E000D030D7F8D420D7F8D0305340C7F8D430D2
:1056F000D7F8D020D7F8D4305340C7F8D030D7F8F7
:10570000C820D7F8CC305340C7F8C830D7F8CC20E1
:10571000D7F8C8305340C7F8CC30D7F8C820D7F8EE
:10572000CC305340C7F8C830D7F8D020D7F8D430A1
:10573000D21ABB6F92FBF3F33B67D7F8C820D7F8B8
:10574000CC30D21A7B6F92FBF3F3FB660023C7F8D1
:105750009C300023C7F89830BA6F7B6F9A42C0F232
:10576000EC80D7F8A030002B03D0D7F8AC30012B59
:1057700007D0D7F8A030002B0ED1D7F8AC30002BD3
:105780000AD1FB6E002B03DD0123C7F89C300FE02C
:105790000123C7F898300BE0FB6E002B04DD4FF0BF
:1057A000FF33C7F8983003E04FF0FF33C7F89C3061
:1057B000D7F8D430C7F8C430D7F8CC30C7F8C030E9
:1057C000D7F8D030C7F8BC30D7F8C830C7F8B830F1
:1057D0000023C7F8A430A8E0D7F8A420BB6F9A42F2
:1057E00011DBD7F8A420BB6FD31AC7F8A430D7F8C1
:1057F000C020FB6E1344C7F8C030D7F8B820FB6E4A
:10580000D31AC7F8B830D7F8C020D7F89C30134463
:10581000BB66BA6ED7F8DC309A4235DBBA6ED7F881
:10582000D8309A4230DCBA6ED7F8DC30D31A5B003D
:10583000C7F8B430D7F8B4309B00D7F880201344B1
:105840001B68D7F8C4209A4208DAD7F8B4309B0016
:10585000D7F880201344D7F8C4201A60D7F8B430A2
:1058600001339B00D7F8802013441B68D7F8C4206D
:105870009A4209DDD7F8B43001339B00D7F8802075
:105880001344D7F8C4201A60D7F8B820D7F8983056
:105890001344BB66BA6ED7F8DC309A4235DBBA6E79
:1058A000D7F8D8309A4230DCBA6ED7F8DC30D31A49
:1058B0005B00C7F8B030D7F8B0309B00D7F8802035
:1058C00013441B68D7F8BC209A4208DAD7F8B030E6
:1058D0009B00D7F880201344D7F8BC201A60D7F873
:1058E000B03001339B00D7F8802013441B68D7F8F1
:1058F000BC209A4209DDD7F8B03001339B00D7F8BD
:1059000080201344D7F8BC201A60D7F8C430013384
:10591000C7F8C430D7F8BC30013BC7F8BC30D7F863
:10592000A4207B6F1344C7F8A430D7F8C420D7F85D
:10593000BC309A427FF750AFDBE0D7F8A030002BA5
:1059400003D0D7F8AC30012B07D0D7F8A030002B0C
:1059500008D1D7F8AC30002B04D13B6F5B42C7F8BD
:10596000983002E03B6FC7F89C30D7F8D430C7F8C6
:10597000C430D7F8CC30C7F8C030D7F8D030C7F82B
:10598000BC30D7F8C830C7F8B8300023C7F8A43007
:10599000A6E0D7F8A4207B6F9A4211DBD7F8A420A9
:1059A0007B6FD31AC7F8A430D7F8C4203B6F1344D9
:1059B000C7F8C430D7F8BC203B6FD31AC7F8BC3047
:1059C000D7F8C020D7F8DC309A4239DBD7F8C020AE
:1059D000D7F8D8309A4233DCD7F8C020D7F8DC307B
:1059E000D31A5B00C7F8B430D7F8C420D7F89C307E
:1059F0001344BB66D7F8B4309B00D7F8802013441B
:105A00001B68BA6E9A4207DAD7F8B4309B00D7F811
:105A100080201344BA6E1A60D7F8B43001339B006B
:105A2000D7F8802013441B68BA6E9A4208DDD7F875
:105A3000B43001339B00D7F880201344BA6E1A604B
:105A4000D7F8B820D7F8DC309A4239DBD7F8B8203D
:105A5000D7F8D8309A4233DCD7F8B820D7F8DC3002
:105A6000D31A5B00C7F8B030D7F8BC20D7F898300D
:105A70001344BB66D7F8B0309B00D7F8802013449E
:105A80001B68BA6E9A4207DAD7F8B0309B00D7F895
:105A900080201344BA6E1A60D7F8B03001339B00EF
:105AA000D7F8802013441B68BA6E9A4208DDD7F8F5
:105AB000B03001339B00D7F880201344BA6E1A60CF
:105AC000D7F8C0300133C7F8C030D7F8B830013B41
:105AD000C7F8B830D7F8A420BB6F1344C7F8A43078
